S02B0000433A5C55736572735C57696C6C795C446F63756D656E74735C4D6972726F725C495445534F5F4553C0
S22440000018004220A50F4000F1274000792840008D284000A5284000C128400000000000C9
S224400020000000000000000000000000A1104000A110400000000000A1104000A929400096
S224400040A1104000A1104000A1104000A1104000A1104000A1104000A1104000A1104000D3
S224400060A110400000000000A1104000A1104000A1104000A1104000A1104000A1104000A4
S224400080A1104000A1104000A1104000A1104000A1104000A1104000A1104000A110400093
S2244000A0A1104000A1104000A1104000A1104000A1104000A1104000A1104000A110400073
S2244000C0A1104000A1104000A1104000A1104000A1104000A1104000A1104000A110400053
S2244000E0A1104000A1104000A1104000A1104000A1104000A1104000C1294000A1104000FA
S224400100A1104000A1104000A1104000A1104000A1104000A11040000000000000000000F4
S224400120A1104000A110400009304000A1104000A110400000000000A1104000A11040005B
S22440014080B400AFBFF34F8FBFF36F8F084B0022C3F85022064A064B5B6943F40033536112
S224400160BFF34F8FBFF36F8FBD465DF8047B704700ED00E080B48BB000AF264BD3F8803095
S224400180FB61FA69244B13405B0B7B62FB6903F007030433BB61FA6941F6F8731340DB0867
S2244001A07B617B69BB60BB68B3FA83F3FB71FB7903F01F033B61BFF34F8F7B693B623B6993
S2244001C03A6A02FA03F31946BB697A6A02FA03F30B43FB600F4AFB68C2F860323B6A5A1E1D
S2244001E03A62002BEBD17B6A5A1E7A62002BE4D1BFF34F8F074A074B5B6943F48033536189
S224400200BFF34F8FBFF36F8F2C37BD465DF8047B704700BF00ED00E000E0FF0F80B500AF0A
S22440022000F08EFDFFF78CFFFFF7A4FF084800F08FFD04F0CFFB04F0E1FC00F079FA00F036
S224400240ABFA02F00BFD02F04BFD00F0E5FBFCE708B3400080B483B000AF374B4FF4A062F5
S2244002601A60364B1B6A7B607A68354B13437B60324A7B681362334B5B6903F08003002B94
S22440028009D1304B304A1A6000BF2E4B5B6903F08003002BF9D0294B1B6A03F08073002B60
S2244002A009D1264B294A1A6200BF244B9B6E03F00103002BF9D0214B254A1A6200BF1F4B1D
S2244002C09B6E03F48033002BF9D01C4A1B4B1B6B23F0030343F00103136300BF174B9B6EF0
S2244002E003F00803002BF9D0144B1A4A9A6200BF124B9B6E03F00203002BF9D00F4B40F26B
S22440030001121A6300BF0D4B9B6E03F00803002BF9D00A4B4FF481721A6300BF074B9B6ED4
S22440032003F00803002BF9D00B4B0C4A1A600C37BD465DF8047B7047000C0E4000060E40E1
S2244003400000370410180E40080000A50908370009083701013F18200000402000A3E111FC
S22440036080B400AF514B1B6B03F00303012B14D0012B02D3022B38D07BE04D4B5B6903F04A
S2244003808003002B04D04B4B4FF400421A6070E0484B4FF4FA421A606BE0444B1B6A03F0D3
S2244003A08073002B03D0434B434A1A601CE0414B424A1A603D4B1B6A03F07003102B04D062
S2244003C0202B08D0002B0ED00EE03A4B1B685B00384A136008E0374B1A6813465B0013446F
S2244003E0344A136000E000BF43E0304B1B6A03F08073002B03D02F4B2F4A1A601CE02D4B40
S2244004002E4A1A60294B1B6A03F07003102B04D0202B08D0002B0ED00EE0264B1B685B00CE
S224400420244A136008E0234B1A6813465B001344204A136000E000BF1C4B1B6B03F0030351
S224400440022B15D1194B9A6A1D4B13401B0C0133184A126802FB03F3164A1360134B9B6AC1
S224400460DBB2144A1268B2FBF3F3124A1360FFE700BF0E4B1B6B03F07003702B08D10D4BBA
S2244004801B68104AA2FB03235B080A4A136009E0064B1B6B03F070031A09064B1B68D3401D
S2244004A0044A1360BD465DF8047B704700060E4010180E4000004020001BB70000093D0066
S2244004C00000FF07ABAAAAAA80B483B000AF78607B68184A934204D8174B4FF080621A6047
S2244004E023E07B68154A934203D8134B144A1A601BE07B68134A934203D80F4B124A1A6071
S22440050013E07B68114A934203D80B4B104A1A600BE07B680F4A934204D8074B4FF00422FC
S2244005201A6002E0044B0C4A1A600C37BD465DF8047B70477FBA8C01000C0E40FF7419037B
S224400540000100047F2FA60400020004FFE9320600030004BFE6CE070005000480B400AF66
S2244005600C4B20225A600B4B4FF47102DA6100BF084B9B6E03F04003002BF9D0054B40F6D1
S22440058001129A63034B20221A60BD465DF8047B704700BF00060E4080B400AF0A4B2022E1
S2244005A05A60094B4FF47102DA6100BF064B9B6E03F04003002BF9D0034B40F601129A6320
S2244005C0BD465DF8047B704700060E4080B485B000AF78600B4B1B68002B02D1094B0A4A85
S2244005E01A60084B1B68FB60064B1A687B681344044A1360FB6818461437BD465DF8047B5A
S224400600704700BF4C0B40201800422080B483B000AF786039604FF0FF3318460C37BD4652
S2244006205DF8047B704700BF80B483B000AF78604FF0FF3318460C37BD465DF8047B70479D
S22440064080B483B000AF786039603B684FF400525A60002318460C37BD465DF8047B70478A
S22440066080B483B000AF7860012318460C37BD465DF8047B704700BF80B485B000AFF860C5
S224400680B9607A60002318461437BD465DF8047B704700BF80B485B000AFF860B9607A60A6
S2244006A0002318461437BD465DF8047B704700BF80B586B000AFF860B9607A6000237B6178
S2244006C00AE0BB681B78184600F05EFE7B6901337B61BB680133BB607A697B689A42F0DBB8
S2244006E07B6918461837BD4680BD00BF80B582B000AF78600248796804F0F6FAFEE700BF84
S22440070020B2400080B483B000AF7860396000BF0C37BD465DF8047B704700BF80B400AFC9
S2244007204FF0FF331846BD465DF8047B704700BF80B400AF0F4B00221A700F4B0C221A705D
S2244007400E4B0C221A700E4B0C221A700D4B00221A600D4B00221A700C4B00221A700C4BE0
S22440076000221A700B4B00221A70BD465DF8047B704700BFEE0B4020EF0B4020E60B402035
S224400780F00B4020E80B4020EC0B4020E40B4020ED0B4020E50B402080B500AF4FF4FA6097
S2244007A0054902F0E5F80346002B00D0FEE7034B01221A7080BD00BF190B4000E50B402003
S2244007C080B400AF034BAA221A70BD465DF8047B704700BFE50B402080B483B000AF7860C2
S2244007E07B681A78044B1A707B6801221A720C37BD465DF8047B7047EF0B402080B582B042
S22440080000AF78607B6802221A727B681A78074B1A70074A7B6813607B685B6898477B6819
S22440082000221A720837BD4680BD00BFE60B4020E80B402080B400AF034B1B681846BD46CE
S2244008405DF8047B704700BFE80B402080B483B000AF78607B6801221A720C37BD465DF89B
S224400860047B704780B483B000AF78607B6802221A727B681A78054B1A70054A7B68136088
S2244008800C37BD465DF8047B704700BFE60B4020E80B402080B485B000AF78600B46FB7033
S2244008A01346BB700123BB730023FB7335E0FA7B1F4913465B0013449B000B445B68002BB7
S2244008C028D1FA7B1A4913465B0013449B000B447A685A60FA7B164913465B0013449B00F7
S2244008E00B44FA781A70FA7B114913465B0013449B000B440833BA785A70FA7B0C4913464A
S2244009005B0013449B000B44083301221A700023BB7305E0FB7B0133FB73FB7B042BC6D97C
S224400920BB7B18461437BD465DF8047B704700BF4C00402080B582B000AFFFF77BFF0246CC
S224400940314B1A60304B1B681846FFF77FFF72B60023FB7114E0F979FA792C480B465B00DC
S2244009600B449B0018442A4913465B0013449B00CA18034607CA83E80700FB790133FB7151
S224400980FB79042BE7D962B60023FB7131E0FA791E4913465B0013449B000B445B68002B3A
S2244009A024D0FA79194913465B0013449B000B4408335A78144B1B685B7A9A4216D3FA7938
S2244009C013465B0013449B00104A13441846FFF715FF72B6FA790E4913465B0013449B007B
S2244009E00B440C4A07CA83E8070062B6FB790133FB71FB79042BCAD9034B1B681846FFF733
S224400A0031FF0837BD4680BD580B4020880040204C0040203CB2400080B500AF354B1B7866
S224400A20002B03D0334B1B78052B1BD1314B1A78314B1A703148FFF7E1FE2E4B1B78052BA8
S224400A4002D12F48FFF7DAFE2B4B1A78294B1B789A4203D1274B0C221A704AE0294B02228E
S224400A601A7046E0234B1B78012B03D0214B1B78042B1BD11F4B1A781F4B1A702248FFF717
S224400A80BDFE1C4B1B78042B02D12048FFF7B6FE194B1A78174B1B789A4203D1154B0C221F
S224400AA01A7026E0174B03221A7022E0114B1B78022B03D00F4B1B78032B1AD10D4B1A786F
S224400AC00D4B1A701248FFF799FE0A4B1B78032B02D11048FFF792FE074B1A78054B1B787A
S224400AE09A4203D1034B0C221A7002E0054B04221A7080BDEF0B4020F00B402004004020C3
S224400B0040004020E50B402010004020340040201C0040202800402080B500AF2B4B1B78AB
S224400B200133DAB2294B1A70284B1B7803F00103002B14D0264B1B780133DAB2244B1A70E9
S224400B40234B1B78632B06D92248FFF745FE204B00221A7038E02048FFF73EFE34E01B4BFC
S224400B601B7803F00203002B14D01C4B1B780133DAB21A4B1A70194B1B78182B06D9184874
S224400B80FFF72AFE154B00221A701DE01548FFF723FE19E00D4B1B7803F00303002B13D189
S224400BA0114B1B780133DAB20F4B1A700E4B1B78042B06D90D48FFF70FFE0B4B00221A7009
S224400BC002E00B48FFF708FE80BD00BFEE0B4020ED0B40204000402004004020E40B40209F
S224400BE03400402010004020EC0B4020280040201C00402080B483B000AF0346FB71084935
S224400C0097F907305B09FA7902F01F02012000FA02F241F823200C37BD465DF8047B704782
S224400C2000E100E080B483B000AF0346FB71094997F907305B09FA7902F01F02012000FAC5
S224400C4002F2203341F823200C37BD465DF8047B704700BF00E100E080B483B000AF0346DC
S224400C60FB71094997F907305B09FA7902F01F02012000FA02F2603341F823200C37BD465C
S224400C805DF8047B704700BF00E100E080B483B000AF03463960FB7197F90730002B0BDAC9
S224400CA00D49FB7903F00F03043B3A68D2B25201D2B20B441A7609E0084997F907303A6862
S224400CC0D2B25201D2B20B4483F800230C37BD465DF8047B704700BF00ED00E000E100E069
S224400CE080B584B000AF7860786800F097FE0346FB60FB681A04FB681A430B4B13430B4876
S224400D00194600F053FE0420FFF78CFF0420FFF7A3FF04200021FFF7B9FF0420FFF76AFF17
S224400D201037BD4680BD00BF0010003050180E4080B500AF014800F055FE80BD50180E40CF
S224400D4080B500AF014800F03FFE80BD50180E4080B586B000AF7860344A7B681360344BBC
S224400D60344A1A60314B1B681B78002B5BD00023FB7552E02D4B1B685968FA7D13465B00A2
S224400D8013449B000B445B683B61284B1B685968FA7D13465B0013449B000B449B68FB60ED
S224400DA0234B1A68FB7D1B01D118204B1B685868FA7D13465B0013449B0003441B780B7061
S224400DC01B4B1A68FB7D1B0113443A695A60184B1A68FB7D1B011344FA689A60144B1A6891
S224400DE0FB7D1B011344F9683A698A1A92B2013292B29A810E4B1B790133DAB20C4B1A71B6
S224400E000B4B1A68FB7D1B0113449B893869194600F072F8FB7D0133FB75044B1B681B78CB
S224400E20FA7D9A42A6D31837BD4680BDF40B4020F80B4020C400402080B485B000AF0346CB
S224400E40FB800023BB600023FB7343E0274B1A68FB7B1B0113445B68254A1360234B1A686E
S224400E60FB7B1B0113449B68224A1360204B1B68033323F003031A461D4B1A601D4B1B68F8
S224400E801A461B4B1B68D31A9BB201339BB2FA889A421CD8164B1B68BB60144B1A68FB7B61
S224400EA01B011344124A1168FA880A445A600F4B1A68FB7B1B0113440E4A126811460C4AD7
S224400EC012688A1A92B2013292B29A8107E0FB7B0133FB73054B1B79FA7B9A42B6D3BB68F9
S224400EE018461437BD465DF8047B7047F80B4020640B4020680B402080B485B000AF786081
S224400F000B467B800023FB8107E07B685A1C7A6000221A70FB890133FB81FA897B889A4245
S224400F20F3D31437BD465DF8047B704780B400AFBD465DF8047B704780B400AFBD465DF821
S224400F40047B704780B400AFBD465DF8047B704780B400AFBD465DF8047B704780B400AF51
S224400F60BD465DF8047B704780B400AFBD465DF8047B704780B400AFBFF34F8FBFF36F8F0A
S224400F80074B0722C3F89022054B0722C3F89422BFF34F8FBFF36F8FBD465DF8047B70476C
S224400FA000ED00E080B586B000AF2E4B7B612E4B3B617A693B699A420CD007E03B691A1D9A
S224400FC03A617A69111D796112681A603B69274A9342F3D3264B3B6104E03B691A1D3A613B
S224400FE000221A603B69234A9342F6D3224BFB6004E0FB685A1CFA6000221A70FB681F4A0A
S2244010009342F6D31E4B7B611E4A7B6923F07F0393601D4B1D4A5A60FFF7ACFFBFF34F8F1A
S224401020BFF36F8F1A4B7B607B6883F30888BFF34F8FBFF36F8F174BFB60174BBB6007E031
S224401040FB685A1CFA60BA68511CB96012781A70FB68124A9342F3D300F01CF9FFF7DEF831
S224401060FEE700BF3019420000004020440B4020440B402014C04120000044200010442031
S2244010800000400000ED00E0000C0E400B07005A00400020000000003099410000000000CE
S2244010A080B400AFFEE700BF80B582B000AFBFF35F8F11237B604A4801F05EFB0246494BE7
S2244010C013433B607868396801F044FB464B7B60464801F051FB0246454B13433B60786849
S2244010E0396801F037FB434B7B603D4801F044FB02463C4B13433B607868396801F02AFB72
S2244011003D4B7B603D4801F037FB02463C4B13433B607868396801F01DFB3A4B7B603A4853
S22440112001F02AFB0246364B13433B607868396801F010FB354B7B606FF0604001F01CFBBB
S2244011400246334B13433B607868396801F002FB304B7B606FF0704001F00EFB02462E4B04
S22440116013433B607868396801F0F4FA2B4B7B606FF0704001F000FB0246294B13433B60E0
S2244011807868396801F0E6FA264B7B606FF0604001F0F2FA0246204B13433B60786839686B
S2244011A001F0D8FA204B7B60204801F0E5FA0246174B13433B607868396801F0CBFA1C4A71
S2244011C01B4B5B6A43F4E0235362052001F098FABFF34F8FBFF36F8F0837BD4680BD00BF8A
S2244011E0FFFF3F000100000112004000FFFF1F00010023061300002014004020FFFF03002A
S2244012000100230315004420FFFF010016000040010001131700006001000003180000707C
S22440122001002503190000801A0010A0FFFF0F0000ED00E090B484B000AF134A134BD31A34
S2244012407B60124BFB60104BBB600AE0FB68013BFB60BB68013BBB60BB681B78DAB2FB683D
S2244012601A70BB680A4A9342F0D8EFF308831C4622467B68D31A3B603B6883F308881037F9
S224401280BD4690BC704700BF180042200040002018C0412080B582B000AFFEF7DBFFFFF756
S2244012A003FF0A4B7B600A4B3B6008E07B685A1C7A603A68511C39601278D2B21A707B6889
S2244012C0044A9342F2D30837BD4680BD000000003099410000000000B0B58AB000AF786032
S2244012E03960234B07F10C041D460FCD0FC495E8030084E803001F4B7B621F4B1F4AC3F8C4
S224401300E4211D4A1C4BD3F8143143F01003C2F8143107F10C031846022101F089F87B6A81
S2244013204FF486721A607B6A4FF0FF32DA600E2000F0FAFB3A687B68B2FBF3F31A097B6AF1
S2244013401A627B6A4FF40C625A607B6A50221A600B4B01221A700B4B1B689B68184600214D
S2244013600222002303F0DCFC2837BD46B0BD00BF10B3400000800240008008400054414D19
S224401380710B4020D006402080B584B000AF0346FB710F4BFB600F4B1B78002B04D14FF444
S2244013A0E1300D49FFF798FF00BFFB685B6903F40073002BF9D0FA79FB68DA6100BFFB687D
S2244013C05B6903F40073002BF9D01037BD4680BD00800240710B402080D1F00880B582B0D1
S2244013E000AF0C4B7B600C4B1B78002B04D14FF4E1300A49FFF770FF00BF7B685B6903F078
S2244014000103002BF9D07B689B6918460837BD4680BD00BF00800240710B402080D1F00825
S22440142080B582B000AF094B7B60094B1B78002B04D14FF4E1300749FFF74EFF7B685B69AD
S22440144003F0010318460837BD4680BD00800240710B402080D1F00880B584B000AF78609C
S22440146039600023FB600AE07A68FB6813441B780848194603F038FCFB680133FB60FA68CD
S2244014803B689A42F0D3044803F02EFC1037BD4680BD00BF28B3400030B3400090B58BB058
S2244014A002AFF860B9607A600023FB6146E0FB691A017B6813444D48194603F015FCFB6931
S2244014C01B01FA6813447B610023BB6118E07B691B7819467B6901331B781A467B690233E5
S2244014E01B781C467B6903331B7800934048234603F0FAFB7B6904337B61BB690133BB612E
S224401500BB69032BE3D9FB691B01FA6813447B610023BB6109E07B695A1C7A611B78184615
S224401520FFF732FFBB690133BB61BB690F2BF2D9304803F0D9FBFB690133FB61BB681A0929
S224401540FB699A42B3D8BB6803F00F03002B49D0BB6823F00F033B617A683B6913442348E3
S224401560194603F0C1FB3B69BB611EE0BA693B699A4207D0BB6903F00303002B02D1202085
S22440158003F0C6FBBA69BB689A4208D2FA68BB6913441B781848194603F0A6FB02E0174852
S2244015A003F0A2FBBB690133BB613B6903F11002BB699A42DAD8202003F0AAFB3B69BB61EE
S2244015C009E0FA68BB6913441B781846FFF7DCFEBB690133BB61BA69BB689A42F1D3054898
S2244015E003F082FB2437BD4690BD00BF34B3400040B3400030B3400054B340005CB34000B9
S22440160080B586B000AF78600023FB7500233B610123FB60FFF7E2FE0346FB72FB7A184663
S224401620FFF7B2FEFB7A2D2B02D0FB7A2B2B0FD1FB7D002B0CD1FB7A2D2B03D14FF0FF33E3
S224401640FB6001E00123FB60FB7D0133FB7533E0FB7A2F2B10D9FB7A392B0DD83A691346E9
S2244016609B0013445B001A46FB7A303B13443B61FB7D0133FB751FE0FB7A0D2B02D0FB7A96
S224401680202B12D1FB7D002B04D10E4803F02CFB002312E00C4803F027FB3B69FA6802FB6E
S2244016A003F27B681A60012307E0FB7A0748194603F01AFB002300E0ACE718461837BD4617
S2244016C080BD00BF60B3400030B3400090B3400080B586B000AFF860B9607A6000237B616C
S2244016E007F114031846FFF78BFF0346002B01D1002315E07A69BB689A4203DB7A697B68D4
S2244017009A4206DD0848B9687A6803F0EDFA002306E0064803F0E8FA7A69FB681A60012388
S22440172018461837BD4680BDB4B3400030B3400080B586B000AF786000237B6100233B61FD
S22440174000237B6136E0FFF749FE0346FB73FB7B1846FFF719FEFB7B2F2B09D9FB7B392BCE
S22440176006D83B691A01FB7B1344303B3B611EE0FB7B402B09D9FB7B462B06D83B691A016E
S224401780FB7B1344373B3B6111E0FB7B602B09D9FB7B662B06D83B691A01FB7B1344573B52
S2244017A03B6104E00A4803F09FFA00230CE07B6901337B617B69072BC5D9064803F094FA00
S2244017C07B683A691A60012318461837BD4680BDE0B3400030B3400080B582B000AF7860CF
S2244017E007E07B681B781846FFF7CEFD7B6801337B607B681B78002BF3D100231846083711
S224401800BD4680BD80B584B000AF78600023FB730CE0FFF7E3FD0346FB73FB7B1846FFF77F
S224401820B3FD7B685A1C7A60FA7B1A70FB7B0D2BEFD17B6800221A70002318461037BD46B9
S22440184080BD00BF80B582B000AF786002227B68934201D300230BE07A6813465B001344AE
S2244018609B00054A13441846012100F0E1FD034618460837BD4680BD08B4400080B582B00B
S22440188000AF786002227B68934201D3002320E012497A6813465B0013449B000B4408333C
S2244018A05B78052B0AD17A6813465B0013449B000A4A1344184600F06DFE09E07A681346F5
S2244018C05B0013449B00054A1344184600F070FE012318460837BD4680BD00BF08B4400058
S2244018E080B582B000AF786002227B68934201D3002320E012497A6813465B0013449B00FF
S2244019000B4408335B78052B0AD17A6813465B0013449B000A4A1344184600F049FE09E069
S2244019207A6813465B0013449B00054A1344184600F030FE012318460837BD4680BD00BFF8
S22440194008B4400080B582B000AF786002227B68934201D3002322E07A6813465B00134496
S2244019609B00114A1344184600F054FE0346002B0AD07A6813465B0013449B000A4A1344B4
S224401980184600F015FE09E07A6813465B0013449B00054A1344184600F0FCFD01231846C1
S2244019A00837BD4680BD00BF08B4400080B483B000AF786039607B683A685A600C37BD469C
S2244019C05DF8047B704700BF80B483B000AF78607B684FF400425A600C37BD465DF8047B4E
S2244019E0704700BF80B483B000AF78607B68034A1A600C37BD465DF8047B7047010000A51D
S224401A0080B483B000AF78607B689B6803F0030318460C37BD465DF8047B704780B483B01E
S224401A2000AF78607B68032B03D97B68B3F57A5F01D9002305E07B681B02054AA2FB032395
S224401A409B0918460C37BD465DF8047B704700BFD34D621080B400AF094A094B1B6B23F0FA
S224401A60030343F00203136300BF054B9B6E03F00803002BF9D0BD465DF8047B704700BF16
S224401A8000060E4080B400AF0E4A0E4B1B6B23F0030343F00103136300BF0A4B9B6E03F0BD
S224401AA00803002BF9D0074B01221A6300BF054B9B6E03F00803002BF9D0BD465DF8047B0F
S224401AC0704700BF00060E4080B400AF084A084B1B6B23F00303136300BF054B9B6E03F04F
S224401AE00803002BF9D0BD465DF8047B704700BF00060E4080B483B000AF78600949094B6D
S224401B001B6B23F070027B6813430B6300BF054B9B6E03F00803002BF9D00C37BD465DF829
S224401B20047B704700060E4080B582B000AF78607B683E2B05D91C489C211C4A1C4B03F0DD
S224401B40A1F87B681F2B13D81A4B9A697B68012101FA03F31A407B68012101FA03F39A4205
S224401B601ED0144A7B68012101FA03F3136117E07B68203B7B600F4BD3F808217B68012107
S224401B8001FA03F31A407B68012101FA03F39A4206D0084A7B68012101FA03F3C2F80031DA
S224401BA00837BD4680BD00BF24B44000B8B4400094B4400000060E4080B582B000AF786014
S224401BC07B683E2B05D91C48BA211C4A1C4B03F059F87B681F2B13D81A4B9A697B680121C1
S224401BE001FA03F31A407B68012101FA03F39A421ED1144A7B68012101FA03F3536117E095
S224401C007B68203B7B600F4BD3F808217B68012101FA03F31A407B68012101FA03F39A42F6
S224401C2006D1084A7B68012101FA03F3C2F804310837BD4680BD00BF24B44000D0B4400037
S224401C4094B4400000060E4080B400AF0D4B6FF003021A6100BF0B4B9B6923F0030313F113
S224401C60040FF8D1074B4FF0FF32C3F8002100BF044BD3F80831B3F1FF3FF9D1BD465DF88F
S224401C80047B704700060E4080B400AF0C4B6FF003025A6100BF0A4B9B6923F00303002BC0
S224401CA0F9D1074B4FF0FF32C3F8042100BF044BD3F80831002BFAD1BD465DF8047B7047DD
S224401CC000060E4080B582B000AF78607B683F2B05D90F48F1210F4A0F4B02F0D3FF7B688F
S224401CE01F2B07D80D4B9B697A68012101FA02F2134008E0094BD3F808317A68203A114601
S224401D0001228A40134018460837BD4680BD00BF24B44000E8B44000A0B4400000060E40C6
S224401D2080B483B000AF1B4B1B6A7B607B6823F070037B607A68184B13437B60154A7B6886
S224401D40136200BF134B9B6E03F40033002BF9D000BF104B9B6E03F00803002BF9D07B688D
S224401D6043F080737B600B4A7B68136200BF094B9B6E03F48033002BF9D000BF054B9B6E9E
S224401D8003F00803002BF9D00C37BD465DF8047B704700BF00060E402908370080B483B059
S224401DA000AF0C4B1B6A7B607B6823F001037B60084A7B6843F45C13136200BF054B9B6E3B
S224401DC003F00803002BF9D00C37BD465DF8047B704700BF00060E4080B500AF164B1B6A1E
S224401DE003F08073002B02D000F0A8F822E01249114B1A6A114B13430B6200BF0E4B5B6AF2
S224401E0003F48033002BF9D00B490B4B1A6A0C4B13430B6200BF084B9B6E03F48033002BA7
S224401E20F9D000BF044B9B6E03F00803002BF9D000F084F880BD00BF00060E400100370097
S224401E400000370180B483B000AF164B1B6A03F00203002B21D1134B134A1A621149114B07
S224401E601A6A124B13430B6200BF0E4B9B6E03F48033002BF9D000237B6002E07B680133C3
S224401E807B607B684FF6FE729342F7D900BF054B5B6A03F48033002BF9D00C37BD465DF8D8
S224401EA0047B704700060E400AFF37000000370180B483B000AF78601C491C4B1A6A1C4B36
S224401EC013430B6200BF194B9B6E03F40033002BF9D01649154B1A6A164B13407A68134381
S224401EE043F45C130B6200BF104B9B6E03F40033002BF9D00D490D4B1A6A0F4B134043F433
S224401F005C130B6200BF094B9B6E03F48033002BF9D000BF054B9B6E03F00803002BF9D0DC
S224401F200C37BD465DF8047B704700BF00060E40080037008FFFC8FFFFFFC8FE80B483B0B9
S224401F4000AF0E4B1B6A7B607B6823F070037B607B6823F008037B60084A7B6843F45C13D9
S224401F60136200BF054B9B6E03F00803002BF9D00C37BD465DF8047B704700BF00060E40B9
S224401F8080B483B000AF786039607B68002B13D00E497B68013B1A040D4B13403A68D2B21F
S224401FA01A430C4B13438B6200BF084B9B6E03F00203002BF9D003E0044B4FF000529A621F
S224401FC00C37BD465DF8047B704700BF00060E400000FF070001002080B582B000AF7860C3
S224401FE039607B68012B0AD0012B02D3022B0CD011E0FFF769FD3868FFF77CFD0BE0FFF7D3
S22440200041FD3868FFF776FD05E03868FFF772FDFFF720FD00BF0837BD4680BD80B582B092
S22440202000AF0F4B4FF4FE425A60FFF72BFD0C490B4B9A6A0B4B13408B62FFF745FD084B27
S2244020401B6A7B607A68084B134043F45C137B60034A7B681362FFF717FE0837BD4680BDA3
S22440206000060E40FFFF00F8F7FFC8FF80B584B000AFF860B9607A60FFF704FDF868B96839
S224402080FFF77EFF00BF064B9B6E03F00803002BF9D002207968FFF79FFF1037BD4680BD5F
S2244020A000060E4080B483B000AF074B1B6A7B607A68064B13437B60034A7B6813620C3773
S2244020C0BD465DF8047B704700060E400000370480B483B000AF78603960104B4FF4807287
S2244020E05A6000BF0D4B9B6803F48073002BF9D10A497A683B6813430B64084B4FF48072C3
S2244021001A6000BF054B9B6E03F48073002BF9D00C37BD465DF8047B704700BF00060E4026
S22440212080B483B000AF78603960104B4FF400725A6000BF0D4B9B6803F40073002BF9D190
S2244021400A497A683B6813434B64084B4FF400721A6000BF054B9B6E03F40073002BF9D065
S2244021600C37BD465DF8047B704700BF00060E4080B483B000AF78603960104B4FF480622F
S2244021805A6000BF0D4B9B6803F48063002BF9D10A497A683B6813438B64084B4FF48062C2
S2244021A01A6000BF054B9B6E03F48063002BF9D00C37BD465DF8047B704700BF00060E4096
S2244021C080B487B000AFF860B9601346FB71FB68BA685A64FB79002B03D0FB68BA685A6670
S2244021E002E0FB68BA681A66FB681B6F7B61FB681A6FBB68D9437B690B401A40FB681A6752
S224402200FB685B6F7B61FB685A6FBB68D9437B690B401A40FB685A67FB68BA685A601C37C6
S224402220BD465DF8047B704780B487B000AFF860B9601346FB71FB68BA685A64FB79002B99
S22440224003D0FB68BA685A6602E0FB68BA681A66FB681B6F7B61BA687B691A43FB681A672A
S224402260FB685B6F7B61FB685A6FBB68D9437B690B401A40FB685A67FB68BA685A601C3766
S224402280BD465DF8047B704780B487B000AFF860B9601346FB71FB68BA685A64FB79002B39
S2244022A003D0FB68BA685A6602E0FB68BA681A66FB681B6F7B61FB681A6FBB68D9437B6902
S2244022C00B401A40FB681A67FB685B6F7B61BA687B691A43FB685A67FB68BA685A601C370E
S2244022E0BD465DF8047B704780B487B000AFF860B9601346FB71FB68BA685A64FB79002BD9
S22440230003D0FB68BA685A6602E0FB68BA681A66FB681B6F7B61BA687B691A43FB681A6769
S224402320FB685B6F7B61BA687B691A43FB685A67FB68BA685A601C37BD465DF8047B7047A8
S22440234080B485B000AFF860B9601346FB71FB68BA685A64FB7903F00103002B03D0FB68DB
S224402360BA685A6602E0FB68BA681A66FB7903F00A03002B03D0FB68BA681A6202E0FB6897
S224402380BA685A62FB7903F00203002B04D0FB68BA68C3F8802008E0FB7903F00803002B4A
S2244023A003D0FB68BA68C3F88420FB68BA685A61FB68BA681A601437BD465DF8047B704709
S2244023C080B485B000AFF860B96011461A460B46FB711346BB71FB68BA685A643B7E002B0F
S2244023E003D0FB68BA685A6602E0FB68BA681A66BB79002B03D0FB68BA681A6502E0FB681E
S224402400BA685A65FB79002B03D0FB68BA681A6302E0FB68BA685A63FB68BA681A61FB689B
S224402420BA681A601437BD465DF8047B704700BFB0B584B002AF78603960A1E07B685B7A2F
S224402440062B00F2958001A252F823F0692440008F244000B5244000DB2440000125400081
S22440246023254000232540007B6859687B681A687B689B7A03F00103002B14BF01230023CA
S224402480DBB2084611461A46FFF79AFE72E07B6859687B681A687B689B7A03F00103002B62
S2244024A014BF01230023DBB2084611461A46FFF7BBFE5FE07B6859687B681A687B689B7A3C
S2244024C003F00103002B14BF01230023DBB2084611461A46FFF7D8FE4CE07B6859687B686A
S2244024E01A687B689B7A03F00103002B14BF01230023DBB2084611461A46FFF7F5FE39E04D
S2244025007B681B7A1846FFF70FFB7B6859687B681A687B689B7A084611461A46FFF710FF95
S22440252028E07B6859687B681A687B685B7A062B0CBF01230023DBB21D467B689B7A03F06F
S2244025400403002B14BF01230023DBB21C467B689B7A03F00103002B14BF01230023DBB23A
S2244025600093084611462A462346FFF729FF01E000230AE07B680C337B603B68013B3B6082
S2244025803B68002B7FF45AAF012318460837BD46B0BD00BF80B483B000AF78607B685B6828
S2244025A07A6812681A630C37BD465DF8047B704780B483B000AF78607B685B687A6812683C
S2244025C05A630C37BD465DF8047B704780B485B000AF78607B685B7A052B03D07B685B7AC5
S2244025E0062B04D17B685B689B6BFB6003E07B685B68DB6BFB607B681A68FB681340002B19
S22440260001D1002300E0012318461437BD465DF8047B704780B483B000AF78607B685B68B1
S2244026209A6B7B681B681340002B01D1002300E0012318460C37BD465DF8047B704700BF85
S22440264080B485B000AF786039607B685B68FB607B681A68FB68C3F884203B685B0047F649
S224402660A672B2FBF3F3013BC3F30D02FB68C3F88C201437BD465DF8047B704780B485B05D
S22440268000AF78607B685B68FB60FB68034AC3F8E4201437BD465DF8047B7047014F49503C
S2244026A080B485B000AF78607B685B68FB60FB68034AC3F8E4201437BD465DF8047B70479C
S2244026C0004F495080B485B000AF78607B685B68FB60FB68D3F8E83018461437BD465DF895
S2244026E0047B704780B483B000AF78600B46FB707B68FA785A720C37BD465DF8047B7047C3
S22440270080B483B000AF7860034A7B6853600C37BD465DF8047B704790ED00E080B483B00E
S22440272000AF7860034A7B6893600C37BD465DF8047B704790ED00E080B400AF044A044BFC
S2244027401B6923F001031361BD465DF8047B704790ED00E080B483B000AF78603960054A64
S2244027607B68D360034A3B6813610C37BD465DF8047B704790ED00E080B485B000AF78607C
S2244027802023FB600423BB600AE07A68FB689A4200D808E0BB680133BB60FB685B00FB60BE
S2244027A0BB681E2BF1D9BB685B0018461437BD465DF8047B704700BF80B584B000AFF860BA
S2244027C0B9607A6072B6BFF34F8FBFF36F8FF868FFF7A4FFFFF7B0FFB8687968FFF7BAFF0B
S2244027E0BFF34F8FBFF36F8F62B61037BD4680BD80B400AFFEE700BF80B483B000AF1C4BB1
S224402800DB6A1B4BDB6A1A4BDB6A03F08043002B1BD0174B9A6A174B1340002B05D0144B93
S2244028209B6A7B607B681B0C7B60114B9B6A03F47F43002B09D00E4B9B6A7B607B681B0A2F
S2244028407B607B6803F08003002B094B9B6ADBB2002B02D0064B9B6A7B60BFF36F8FBFF35E
S2244028605F8F01BE0C37BD465DF8047B704700BF00ED00E00000FFFF80B500AFBFF36F8F77
S224402880BFF35F8FFFF7B8FF80BD00BF80B400AFBFF36F8FBFF35F8F01BEBD465DF8047BE1
S2244028A0704700BF80B400AF00BF00BFBFF36F8FBFF35F8F01BEBD465DF8047B704700BFA0
S2244028C080B400AFBFF36F8FBFF35F8F01BEBD465DF8047B704700BF80B483B000AF034615
S2244028E03960FB7197F90730002B0BDA0D49FB7903F00F03043B3A68D2B25201D2B20B445D
S2244029001A7609E0084997F907303A68D2B25201D2B20B4483F800230C37BD465DF8047BDD
S224402920704700BF00ED00E000E100E080B582B000AF78607B68013BB3F1807F01D30123A6
S2244029400FE00A4A7B68013B53604FF0FF300721FFF7C2FF054B00229A60044B07221A6072
S224402960002318460837BD4680BD00BF10E000E080B582B000AF78603960094A3B68136093
S224402980084B1A687B68B2FBF3F31846FFF7CEFF0346DBB25BB218460837BD4680BD00BF07
S2244029A07C0B40200000402080B500AF034B1B68002B02D0014B1B68984780BD7C0B402007
S2244029C080B500AF014B1B68984780BD000C402080B483B000AF78600B46FB70FA787B6878
S2244029E0DA610C37BD465DF8047B704780B485B000AFF860B9607A603B60FB684FF4D6729A
S224402A001A60FB684FF0FF32DA60FB68BA685A603A687B68B2FBF3F31A09FB681A62FB682E
S224402A2050221A60034ABB6913601437BD465DF8047B7047000C402080B483B000AF78604E
S224402A400B46FB70FB78002B03D07B6840221A6002E07B6880221A600C37BD465DF8047B4A
S224402A60704700BF80B483B000AF78600B46FB70FB78002B03D07B6810221A6002E07B682C
S224402A8020221A600C37BD465DF8047B704700BF80B483B000AF78607B685B6903F0010319
S224402AA018460C37BD465DF8047B704780B582B000AF786000BF7868FFF7EAFF0346002BC2
S224402AC0F9D07B689B69DBB218460837BD4680BD80B483B000AF78607B685B6903F002030A
S224402AE018460C37BD465DF8047B704780B483B000AF78607B685B6903F4007318460C37C2
S224402B00BD465DF8047B704780B582B000AF78600B46FB7000BF7868FFF7BAFF0346002B76
S224402B2005D17868FFF7E2FF0346002BF3D0FA787B68DA6100BF7868FFF7D8FF0346002B1C
S224402B40F9D00837BD4680BD80B483B000AF78607B685B6918460C37BD465DF8047B704724
S224402B6080B483B000AF786039607B683A689A600C37BD465DF8047B704700BF80B483B013
S224402B8000AF786039607B683A68DA600C37BD465DF8047B704700BF80B483B000AF786093
S224402BA07B681B6918460C37BD465DF8047B704780B586B000AFF860B9607A60BB687B61D6
S224402BC000233B6100233B610BE07B691B78F8681946FFF799FF7B6901337B613B690133B7
S224402BE03B613A697B689A42EFD31837BD4680BD80B586B000AFF860B9607A6000237B61DD
S224402C0000237B610CE0F868FFF750FF03461A46BB681A70BB680133BB607B6901337B6123
S224402C207A697B689A42EED31837BD4680BD00BF80B483B000AF78600B46FB701346BB7070
S224402C40FA78BB781B0403F47F031A437B685A620C37BD465DF8047B704700BF80B582B0FF
S224402C6000AF1E20FEF760FF184B01221A60174B40F213129A60154B01221A61134B02229B
S224402C801A6100237B600CE0114A7B6832F813305B0019460F4A7B6842F823107B68013365
S224402CA07B607B6846F681429342EDD91720FEF73BFF09480021094A01F0CAFD064B42F20F
S224402CC09F42DA610837BD4680BD00BF0000044040BE4000B40D402000C0004001C00C03E2
S224402CE080B500AF0D4B00221A720C4B46F682429A800A4B0A4A1A60084B0122DA800948F0
S224402D0009491E22094B00F01BF90648034900F035F90748002101F0C5FD80BDA00D40205F
S224402D20B40D4020900D402000000440040C402000C0004080B483B000AF0346FB71084960
S224402D4097F907305B09FA7902F01F02012000FA02F241F823200C37BD465DF8047B704721
S224402D6000E100E080B483B000AF0346FB71094997F907305B09FA7902F01F02012000FA64
S224402D8002F2603341F823200C37BD465DF8047B704700BF00E100E080B48BB000AF224B0F
S224402DA0D3F88030FB61FA69204B13405B0B7B62FB6903F007030433BB61FA6941F6F873DA
S224402DC01340DB087B617B69BB60BB68B3FA83F3FB71FB7903F01F033B61BFF34F8F7B6952
S224402DE03B623B693A6A02FA03F31946BB697A6A02FA03F30B43FB600B4AFB68C2F86C32A5
S224402E003B6A5A1E3A62002BEBD17B6A5A1E7A62002BE4D1BFF34F8FBFF36F8F2C37BD460E
S224402E205DF8047B704700BF00ED00E000E0FF0F80B582B000AF78607B689B6818460021F5
S224402E4000F064FA7B689A68174B1B681046194600F02EFB7B689B681846FF211E2200F0B3
S224402E60FBFA0246104B1A603A20FFF77BFF3A20FFF760FF0C4B1B684FF6FF72934201D14B
S224402E8001230DE07B689A68074B1B681046194600F09CFB0346002B01D0012300E000237A
S224402EA018460837BD4680BD880B402080B590B002AFF860B9607A607B681B687B631C4BE1
S224402EC01C4A5A607B6B1A4A93607B681B7A06339B00FA68134404331A46154BDA607B6837
S224402EE0DB88002B03D0124A114B1A6002E0104B00221A601E20002100F06AFE03461B0600
S224402F0003F0FE420C4B1343FB610F233B630B4B1968074B07F11002009301230193B868C2
S224402F203B6B00F0CBFC002318463837BD4680BD8C0B4020826C000B11500100880B40207A
S224402F4080B485B000AFF860B9603B601346FB71FB68BA681A60FB68FA791A73FB6801225B
S224402F605A73FB6800225A60FB683A689A60002318461437BD465DF8047B704780B584B03E
S224402F8000AF786039607B681B68FB607B685B7BDBB2002B01D1022330E07B685B7BDBB24D
S224402FA0DBB2DBB2013BDBB2DAB27B685A737B683A685A607868FFF73BFF0346002B01D019
S224402FC002231BE07B689B68F86819463A68FFF76DFF0346002B01D002230FE0FFF7DCFEBA
S224402FE07B689A68074B1B681046194600F04EFD0346002B01D0022300E0002318461037D0
S224403000BD4680BD880B402080B500AF0C4B1B78002B06D10120FEF731FC094B01221A7024
S22440302005E00120FEF75CFC054B00221A700548002101F06BF90246034B1A6080BD00BF2D
S2244030409C0B402000800740BCBF412080B48BB000AF224BD3F88030FB61FA69204B1340FE
S2244030605B0B7B62FB6903F007030433BB61FA6941F6F8731340DB087B617B69BB60BB68DB
S224403080B3FA83F3FB71FB7903F01F033B61BFF34F8F7B693B623B693A6A02FA03F319468D
S2244030A0BB697A6A02FA03F30B43FB600B4AFB68C2F874323B6A5A1E3A62002BEBD17B6A8B
S2244030C05A1E7A62002BE4D1BFF34F8FBFF36F8F2C37BD465DF8047B704700BF00ED00E0BA
S2244030E000E0FF0F80B489B000AFF8600B467A60FB722CE0FB68FB61FB69D3E84F3FFB76A8
S224403100FB7EFA7A9A421DD908E07B681B68591E7A681160002B01D101231DE0FB681B787F
S224403120DBB20133DBB2BB76FB687B617A69B97EC2E8431F3B613B69002BE6D1BFF35F8FA4
S224403140002309E07B681B685A1E7B681A607B681B68002BCED1012318462437BD465DF87E
S224403160047B704780B487B000AF7860BFF34F8F7B687B617B69D3E84F3FFB74FB7C002B55
S22440318012D07B681B78DBB2013BDBB2BB747B68FB60FA68B97CC2E8431FBB60BFF34F8F81
S2244031A0BFF35F8F002300E0012318461C37BD465DF8047B704700BF80B584B000AF786015
S2244031C00B46FB701346BB70FB78FF2B05D0BB78FF2B02D04FF6FF738DE0BB78FF2B0DD16A
S2244031E0FB78184600F038FD0346002B06D14448444901F079FD4FF6FF737CE0FB78FF2B19
S2244032000DD1BB78184600F027FD0346002B06D13B483C4901F068FD4FF6FF736BE0002318
S224403220FB605BE07A68FB681B0113440833DB7ADBB2002B4FD17A68FB681B0113440833A0
S2244032400122DA727A68FB681B0113440833FA785A717A68FB681B0113440833BA789A715A
S224403260FB781846002100F0B3FC034619467A68FB681B01134408330A46DA71FB78184671
S224403280012100F0A5FC034619467A68FB681B01134408330A461A72BB781846002100F01D
S2244032A097FC034619467A68FB681B01134408330A465A72BB781846012100F089FC03460E
S2244032C019467A68FB681B01134408330A469A72FB68DBB20FE0FB680133FB607B6893F8BC
S2244032E085311A46FB689A429CD80748054901F0FBFC4FF6FF7318461037BD4680BD00BFE0
S224403300FCB440002CB6400018B5400080B584B000AF78600B46FB7040F2FF73BB607B68FB
S224403320002B05D147488E21474A484B01F0AAFC7B6803F5C47207F10803104601211A4662
S224403340FFF7D0FE424B1B78002B06D07B6803F5C4731846FFF706FF71E07B683D4A1A60A3
S2244033607B68FA7883F886217B68012283F88421384800F0A3FC0346DBB203F01F03DBB2E4
S2244033800133DAB27B6883F885210023FB6046E07A68FB681B01134400225A607A68FB68A7
S2244033A01B01134400229A607A68FB681B011344083300221A717A68FB681B0113440833A6
S2244033C000225A717A68FB681B011344083300229A717A68FB681B01134408330022DA713B
S2244033E07A68FB681B011344083300221A727A68FB681B011344083300225A727A68FB68C1
S2244034001B011344083300229A727A68FB681B01134408330022DA72FB680133FB607B6855
S22440342093F885311A46FB689A42B1D8084B01221A707B6803F5C4731846FFF793FE1037A0
S224403440BD4680BD50B5400048B64000C4B54000A50B40200080074080B584B000AF7860E4
S2244034600B46FB701346BB704FF6FF73FB6040F2FF73BB607B6803F5C47207F1080310468C
S22440348001211A46FFF72EFEFA78BB78786811461A46FFF791FEF8607B6803F5C4731846BA
S2244034A0FFF760FEFB6818461037BD4680BD00BF80B584B000AF786039603B68FB737B68EF
S2244034C0002B05D11A48C9211A4A1B4B01F0DAFB7B6893F88531FA7B9A4201D3042322E058
S2244034E0FB7B7A681B0113440833DB7ADBB2013B042B17D801A252F823F000BF1135400000
S22440350011354000113540001535400015354000032308E0FB7B7A681B0113440833002210
S224403520DA7200BF002318461037BD4680BD00BF50B540005CB64000CCB5400080B586B0B1
S22440354000AFF860B9607A603B60BB68FB75FB68002B05D11A48E6211A4A1B4B01F092FBE9
S224403560FB6893F88531FA7D9A4201D3042322E0FB7DFA681B0113440833DB7ADBB2002B7D
S22440358001D1042317E0FB7DFA681B0113440833DB7ADBB2022B01D103230CE0FB7DFA68A1
S2244035A01B0113447A685A60FB7DFA681B0113443A689A60002318461837BD4680BD00BFFF
S2244035C050B5400070B64000CCB5400080B584B000AF786039603B68FB737B681B68BB601F
S2244035E07B68002B06D13B4840F201113A4A3B4B01F048FB7B6893F88531FA7B9A4201D353
S224403600042362E0FB7B7A681B0113440833DB7ADBB2002B01D1042357E0FB7B7A681B0145
S22440362013440833DB7ADBB2022B08D0FB7B7A681B0113440833DB7ADBB2032B01D10323BE
S22440364043E03A20FEF73EFB0346002B02D13A20FEF76AFAFB7BB868194600F057FEFB7BD0
S224403660B868194600F096FBFB7BB8681946FF2200F0F2FDFB7BB868194600F03FFCFB7B7A
S224403680B8681946002200F0A5FEFB7BB8681946002200F0CDFEFB7BB8681946002200F0D8
S2244036A093FFFB7BB8681946202200F0BDFFFB7BB86819460022002300F0E8FEFB7BB868AA
S2244036C01946002200F022FF002318461037BD4680BD00BF50B5400084B64000CCB54000CC
S2244036E080B588B000AF78600023FB777B68002B06D14D484FF495714C4A4D4B01F0C2FA5E
S2244037007B681B68BB61B86900F07CFB78617B6923F07F43002B00F08380B86900F030FC6D
S22440372038610023BB7775E0BB7F012202FA03F31A467B691340002B00D168E0BB7F1B0181
S2244037407A6813440433FB60FB68DB7BDBB2002B00D165E0BB7F01229A403B691340002B79
S22440376032D10023FB77BB7FB869194600F0FAFDB860BB6803F00103002B0ED0BB7FB86935
S224403780194600F097FD034603F00203002B04D1FB680422DA730123FB77BB6803F0020339
S2244037A0002B04D0FB680422DA730123FB77BB6803F00403002B04D0FB680422DA73012343
S2244037C0FB77FFF743FC13E0FFF740FCBB7FB869194600F09BFD034603F00103002B07D054
S2244037E0FB681B68B97FFA685268084611469847FB7F002B0BD0FB681B68002B07D0FB68FB
S2244038001B68B97FFA685268084611469847BB7F0133BB777B6893F88531BA7F9A4283D3D9
S2244038202037BD4680BD00BF50B540009CB64000DCB5400080B584B000AF786039603B6819
S224403840FB737B68002B06D119484FF4B871194A194B01F017FA7B6893F88531FA7B9A42C5
S22440386001D3042320E0FFF7F1FBFB7B7A681B0113440833DB7ABB73BB7B012B01D1002346
S22440388012E0BB7B002B01D104230DE0BB7B042B09D07B6893F88631002B02D07868FFF774
S2244038A01FFF032300E0002318461037BD4680BD50B54000ACB64000CCB5400080B586B084
S2244038C000AFF860B9607A603B60BB68FB75FB68002B06D16A4840F28F116A4A6A4B01F038
S2244038E0D1F9FB6893F88531FA7D9A4201D30423C1E0FB681B683B61FB7D3869194600F03C
S22440390005FDFB7DFA681B0113440833DB7ADBB2002B01D10423AEE0FB7DFA681B011344F7
S2244039200833DB7ADBB2022B01D10323A3E03B6803F00103002B47D03B6803F01803002BC5
S22440394017D17B68DB68FA7D386911461A4600F06BFE7B685B68FA7D386911461A4600F087
S22440396039FD7B689B68FA7D386911461A4600F05FFD3B6803F01803082B07D17B68DB68E9
S224403980FA7D386911461A4600F04EFEFB7D386919463A6A002300F079FD3B68DBB2FA7D8B
S2244039A0386911461A4600F0B1FDFB7D38691946FF2200F051FC7B6ADBB2FA7D3869114615
S2244039C01A4600F01BFC55E07B685B68FA7D386911461A4600F0FEFC7B689B68FA7D3869A9
S2244039E011461A4600F024FD7B681B68FA7D386911461A4600F0B8FD7B681B699BB2FA7DB5
S224403A00386911461A4600F0DFFD7B685B69FA7D386911461A4600F061FE7B689B69FA7D1A
S224403A20386911461A4600F087FE7B68DB69FA7D386911461A4600F0AFFE7B68DB68FA7D44
S224403A40386911461A4600F0EFFDFB7D386919460022002300F01AFDFB7D3869194600228F
S224403A6000F054FD7B6ADBB2FA7D386911461A4600F0C4FB002318461837BD4680BD00BF01
S224403A8050B54000C4B64000CCB5400080B584B000AF786039603B68FB737B68002B06D1A2
S224403AA025484FF4E171254A254B01F0EBF87B6893F88531FA7B9A4201D3042337E07B68A2
S224403AC01B68BB60FB7B7A681B0113440833DB7ADBB2002B05D11B48184901F005F9042340
S224403AE025E0FB7B7A681B0113440833DB7ADBB2022B05D11448114901F0F6F8032316E0E0
S224403B00FB7B7A681B01134408330222DA72FB7BB868194600F0B0F97B6893F88631002B0C
S224403B2004D1FB7BB868194600F016F9002318461037BD4680BD00BF50B54000DCB6400099
S224403B40CCB54000ECB540000CB6400080B584B000AF786039603B68FB737B68002B06D1FD
S224403B60184840F2DF11184A184B01F08BF87B6893F88531FA7B9A4201D304231DE07B68F5
S224403B801B68BB60FB7B7A681B01134408330522DA72FB7BB868194600F0B0F9FB7BB868A5
S224403BA01946FF2200F058FBFB7BB868194600F0ADFBB86800F0E4F9002318461037BD46B8
S224403BC080BD00BF50B54000F0B64000CCB5400080B584B000AF03460A46FB711346BB7116
S224403BE01B4800F06BF8034603F47F031B0CBB730023FB7323E0FA7B164913465B00134440
S224403C009B000B445A68FB799A4215D1FA7B114913465B0013449B000B4408331B78BA79B8
S224403C209A4209D1FA7B0B4913465B0013449B000B4408335B7807E0FB7B0133FB73FA7B49
S224403C40BB7B9A42D7D9FF2318461037BD4680BD0080074004B7400080B584B000AF034633
S224403C60FB71144800F02AF8034603F47F031B0CBB73FB79FF2B01D1012317E00023FB73F2
S224403C800FE0FA7B0C4913465B0013449B000B445A68FB799A4201D1012307E0FB7B013398
S224403CA0FB73FA7BBB7B9A42EBD9002318461037BD4680BD0080074004B7400080B582B0D5
S224403CC000AF78607B68002B05D106483D21064A064B00F0D7FF7B681B6818460837BD461B
S224403CE080BD00BF20B94000C0B9400094B9400080B582B000AF78607B68002B05D1064804
S224403D004821064A064B00F0BDFF7B685B6818460837BD4680BD00BF20B94000D0B9400084
S224403D2094B9400080B582B000AF78607B68002B05D106485321064A064B00F0A3FF7B6807
S224403D409B6818460837BD4680BD00BF20B94000E0B9400094B9400080B582B000AF786012
S224403D600B46FB707B68002B05D107485F21074A074B00F087FFFB7801229A407B68DA60E9
S224403D800837BD4680BD00BF20B94000F4B9400094B9400080B582B000AF78600B46FB7063
S224403DA07B68002B05D107486B21074A074B00F069FFFB7801229A407B681A610837BD46F4
S224403DC080BD00BF20B9400004BA400094B9400080B582B000AF78607B68002B05D10648DE
S224403DE07621064A064B00F04DFF7B685B6918460837BD4680BD00BF20B9400018BA40009C
S224403E0094B9400080B582B000AF78607B68002B05D106488121064A064B00F033FF7B6868
S224403E209B6918460837BD4680BD00BF20B940002CBA400094B9400080B584B000AF7860E1
S224403E407B68002B05D109488D21094A094B00F019FF7B689B69FB607B685B69FA681340ED
S224403E60FB60FB6818461037BD4680BD20B940003CBA400094B9400080B582B000AF786090
S224403E800B46FB707B68002B05D10B489B210B4A0B4B00F0F7FEFB78172B05D906489C2100
S224403EA0064A084B00F0EEFEFB7801229A407B68DA610837BD4680BD20B9400050BA4000CE
S224403EC094B940009CB9400080B582B000AF786039607B68002B05D10548A821054A064B5A
S224403EE000F0D0FE7B683A68DA610837BD4680BD20B9400064BA400094B9400080B582B015
S224403F0000AF78600B46FB707B68002B05D10B48B4210B4A0B4B00F0B5FEFB78172B05D92C
S224403F200648B521064A084B00F0ACFEFB7801229A407B681A620837BD4680BD20B9400074
S224403F407CBA400094B940009CB9400080B582B000AF786039607B68002B05D10548C121EA
S224403F60054A064B00F08EFE7B683A681A620837BD4680BD20B9400094BA400094B940002C
S224403F8080B582B000AF78607B68002B05D10648CF21064A064B00F075FE7B685B6A1846C2
S224403FA00837BD4680BD00BF20B94000ACBA400094B9400080B582B000AF78600B46FB7088
S224403FC07B68002B05D10D48DB210D4A0D4B00F059FEFB78172B05D90848DC21084A0A4BEA
S224403FE000F050FE7B689A6AFB78012101FA03F31A437B689A620837BD4680BD20B94000FD
S224404000C4BA400094B940009CB9400080B582B000AF78600B46FB707B68002B05D10D4898
S224404020E8210D4A0D4B00F02DFEFB78172B05D90848E921084A0A4B00F024FE7B68DA6A9B
S224404040FB78012101FA03F31A437B68DA620837BD4680BD20B94000E0BA400094B940001A
S2244040609CB9400080B582B000AF78600B46FB707B68002B05D10B48F5210B4A0B4B00F0D4
S22440408001FEFB78172B05D90648F621064A084B00F0F8FDFB7801229A407B681A6308374D
S2244040A0BD4680BD20B94000FCBA400094B940009CB9400080B582B000AF78600B46FB70A0
S2244040C07B68002B06D10C484FF481710B4A0C4B00F0D8FDFB78172B06D9074840F2031193
S2244040E0064A084B00F0CEFDFB7801229A407B685A630837BD4680BD20B940001CBB40005E
S22440410094B940009CB9400080B582B000AF78600B46FB707B68002B06D10C484FF4887119
S2244041200B4A0C4B00F0AEFDFB78172B06D9074840F21111064A084B00F0A4FDFB780122F2
S2244041409A407B689A630837BD4680BD20B940003CBB400094B940009CB9400080B582B008
S22440416000AF78607B68002B06D1064840F21D11054A064B00F086FD7B68DB6B1846083707
S224404180BD4680BD20B9400058BB400094B9400080B582B000AF78600B46FB707B68002BE9
S2244041A006D1124840F22911114A124B00F06AFDFB78172B06D90D484FF495710C4A0E4B2D
S2244041C000F060FDFB7801229A407B681A6400BFFB787868194600F099F8034603F0080343
S2244041E0002BF5D00837BD4680BD00BF20B9400078BB400094B940009CB9400080B582B037
S22440420000AF78600B46FB701346BB707B68002B06D10D484FF49C710C4A0D4B00F032FD3B
S224404220FB78172B06D9084840F23911074A094B00F028FDFB78BA7879689B010B4450332B
S2244042401A600837BD4680BD20B9400090BB400094B940009CB9400080B582B000AF78606C
S2244042600B46FB701346BB707B68002B06D10D484FF4A3710C4A0D4B00F004FDFB78172BD4
S22440428006D9084840F24711074A094B00F0FAFCFB78BA7879689B010B4450335A600837A8
S2244042A0BD4680BD20B94000A8BB400094B940009CB9400080B582B000AF78600B46FB70F1
S2244042C07B68002B06D10D4840F253110C4A0D4B00F0D8FCFB78172B06D908484FF4AA7115
S2244042E0074A094B00F0CEFCFB787A689B01134458331B6818460837BD4680BD20B94000CE
S224404300C0BB400094B940009CB9400080B582B000AF78600B46FB707B68002B06D10D4897
S2244043204FF4B0710C4A0D4B00F0ACFCFB78172B06D9084840F26111074A094B00F0A2FCD3
S224404340FB787A689B01134458335B6818460837BD4680BD20B94000D8BB400094B940002C
S2244043609CB9400080B584B000AF78600B46FB707B68002B06D113484FF4B771124A134B52
S22440438000F080FCFB78172B06D90E4840F26F110D4A0F4B00F076FCFB787A689B01134475
S2244043A058335B68FB60FB787A689B01134458331B68FA681340FB60FB6818461037BD469E
S2244043C080BD00BF20B94000ECBB400094B940009CB9400080B584B000AFF8600B467A60DF
S2244043E0FB72FB68002B06D10D4840F27F110D4A0D4B00F047FCFB7A172B06D908484FF484
S224404400C071084A094B00F03DFCFB7AFA689B01134460337A681A601037BD4680BD00BF58
S22440442020B9400004BC400094B940009CB9400080B584B000AFF8600B467A60FB72FB6891
S224404440002B06D10D4840F28D110D4A0D4B00F019FCFB7A172B06D908484FF4C771084A89
S224404460094B00F00FFCFB7AFA689B01134460337A685A601037BD4680BD00BF20B9400050
S22440448018BC400094B940009CB9400080B584B000AFF8607A601A460B46FB721346BB72B3
S2244044A0FB68002B06D114484FF4CF71134A144B00F0E8FBBB7A012B06D90F4840F29F116B
S2244044C00E4A104B00F0DEFBFB7A172B06D90A484FF4D071094A0C4B00F0D4FBFB7A7A68EF
S2244044E022F00301BA7A0A43F9689B010B4468331A601037BD4680BD20B9400034BC4000AF
S22440450094B94000B8B940009CB9400080B582B000AF78600B46FB701346BB707B68002B47
S22440452006D10D484FF4D7710C4A0D4B00F0AAFBFB78172B06D9084840F2AF11074A094BC1
S22440454000F0A0FBFB78BA7879689B010B4468335A600837BD4680BD20B940004CBC4000E5
S22440456094B940009CB9400080B584B000AFF8600B467A60FB72FB68002B06D10E484FF4CE
S224404580DE710E4A0E4B00F07DFBFB7A172B06D9094840F2BD11094A0A4B00F073FBFB7A0C
S2244045A07A6822F07F42F9689B010B4470331A601037BD4680BD00BF20B9400068BC4000D5
S2244045C094B940009CB9400080B582B000AF78600B46FB7013463B807B68002B06D10E487B
S2244045E04FF4E5710D4A0E4B00F04CFBFB78172B06D9094840F2CB11084A0A4B00F042FB2F
S224404600FB783A88C2F30B0279689B010B4470335A600837BD4680BD20B9400084BC40001D
S22440462094B940009CB9400080B584B000AFF8600B467A60FB72FB68002B06D10D484FF40E
S224404640EC710D4A0D4B00F01DFBFB7A172B06D9084840F2D911084A094B00F013FBFB7AE6
S224404660FA689B01134478337A681A601037BD4680BD00BF20B940009CBC400094B9400015
S2244046809CB9400080B582B000AF78600B46FB707B68002B06D10D4840F2E5110C4A0D4B86
S2244046A000F0F0FAFB78172B06D908484FF4F371074A094B00F0E6FAFB787A689B01134493
S2244046C078331B6818460837BD4680BD20B94000B4BC400094B940009CB9400080B584B036
S2244046E000AFF8600B467A60FB72FB68002B06D10D484FF4FA710D4A0D4B00F0C3FAFB7A9D
S224404700172B06D9084840F2F511084A094B00F0B9FAFB7AFA689B01134478337A685A6051
S2244047201037BD4680BD00BF20B94000CCBC400094B940009CB9400080B584B000AFF8607B
S2244047400B467A60FB72FB68002B06D10E4840F202210E4A0E4B00F095FAFB7A172B06D9A6
S224404760094840F20321094A0A4B00F08BFAFB7A7A6822F07F42F96802339B010B441A600B
S2244047801037BD4680BD00BF20B94000ECBC400094B940009CB9400080B584B000AFF860FB
S2244047A00B467A60FB72FB68002B06D10E484FF404710E4A0E4B00F065FAFB7A172B06D913
S2244047C0094840F21121094A0A4B00F05BFAFB7A7A6822F07F42F96802339B010B445A608D
S2244047E01037BD4680BD00BF20B940000CBD400094B940009CB9400080B582B000AF7860FC
S2244048000B46FB707B68002B06D10D4840F21D210C4A0D4B00F036FAFB78172B06D908483B
S22440482040F21E21074A094B00F02CFAFB787A689B01134460335B6818460837BD4680BD8C
S22440484020B9400034BD400094B940009CB9400080B586B000AFF860B9607A60BB68022BF2
S22440486005D90D4860210D4A0D4B00F00BFABB689B01FA6813447B617B6902221A607B69E1
S2244048804FF0FF329A627B691B6A7B697A685A601837BD4680BD00BF50BD40001CBE4000C9
S2244048A0C0BD400080B584B000AF786039603B68022B05D908487C21084A094B00F0E2F961
S2244048C03B689B017A681344FB60FB6805221A601037BD4680BD00BF50BD40002CBE4000FF
S2244048E0C0BD400080B584B000AF786039603B68022B05D908488E21084A094B00F0C2F92F
S2244049003B689B017A681344FB60FB6802221A601037BD4680BD00BF50BD400038BE4000B5
S224404920C0BD4000B0B48BB000AFF860B9607A603B60274B07F110041D460FCD0FC42B681E
S224404940236000237B6207E07B6A01337B627B6A052B01D1002336E07B6A9B0007F12802F0
S224404960134453F8183CBA68B2FBF3F31A0CFB689A42E9D811E07B6A01339B0007F128025A
S224404980134453F8183CBA68B2FBF3F2FB689A4200D205E07B6A01337B627B6A032BEAD966
S2244049A07B68002B08D07B6A9B0007F12802134453F8182C7B681A603B68002B02D03B68A4
S2244049C07A6A1A60012318462C37BD46B0BC704708BE400080B500AF0020FCF733FF0120D9
S2244049E0FCF730FF80BD00BF80B500AF244B1B780133DAB2224B1A70214B1B780B2B1BD097
S224404A000B2B04DC012B07D0032B25D036E00D2B29D0652B2ED031E00020FCF72FFF0120CD
S224404A20FCF72CFF174806210522FBF733FF03461A46154B1A7021E00020FCF71FFF01205C
S224404A40FCF71CFF0F4807210522FBF723FF03461A460D4B1A7011E00020FCF741FF012059
S224404A60FCF73EFF0AE00020FCF73AFF0120FCF737FF03E0024B00221A7000BF80BD00BFAA
S224404A80AD0B4020114C4000AE0B402080B483B000AF0346FB71084997F907305B09FA7949
S224404AA002F01F02012000FA02F241F823200C37BD465DF8047B704700E100E080B483B01A
S224404AC000AF0346FB71094997F907305B09FA7902F01F02012000FA02F2603341F823200C
S224404AE00C37BD465DF8047B704700BF00E100E080B483B000AF03463960FB7197F90730F5
S224404B00002B0BDA0D49FB7903F00F03043B3A68D2B25201D2B20B441A7609E0084997F98C
S224404B2007303A68D2B25201D2B20B4483F800230C37BD465DF8047B704700BF00ED00E0B2
S224404B4000E100E080B582B002AF2E20FCF7ECFF104B009310484FF408414FF4E1320F4B89
S224404B60FDF744FF2E20FFF7A9FF2E200121FFF7BFFF09480121FDF75FFF07480121FDF77F
S224404B8071FF05480121FDF7EBFF2E20FFF77EFFBD4680BD3D4C4000001E0E4080D1F00894
S224404BA080B400AF064B074A1A60054B1B68064A1360064B00221A80BD465DF8047B704780
S224404BC0C0BF4120D0BF4120CCBF4120C4BF412080B500AF05480221FDF7D0FF044B054A3B
S224404BE01A60054B00221A8080BD00BF001E0E40C8BF4120C4014020C6BF412080B500AFAB
S224404C00FFF7A0FFFFF7CCFFFFF7E2FF80BD00BF80B500AF054B064A1A60064BDF221A803C
S224404C2005480221FDF79CFF80BD00BFC8BF4120C4014020C6BF4120001E0E4080B500AFF1
S224404C400D4B1B88002B12D00C4B1B681B780C481946FDF7BDFE094B1B680133074A136069
S224404C60054B1B88013B9AB2034B1A8003E004480221FDF783FF80BDC6BF4120C8BF4120B9
S224404C80001E0E400A4C0546206800B5C06885B05AB11446074A02948DE806001A460649B2
S224404CA02B4600F00DF802F087FA044A1446F2E7D0064020449741005497410050974100AF
S224404CC00EB410B583B0074B014605AC186854F8042B2346019400F0E9F803B0BDE8104019
S224404CE003B07047D00640200FB410B582B0074B04AC186854F8042B81682346019400F041
S224404D000FFF02B0BDE8104004B07047D0064020024B01461868826804F0D4BED00640203E
S224404D202DE9F8433B4E04460D46904637681E4617B1BB6B002B3FD0B8F1020F32D85FEAA9
S224404D40D6792FD12146384603F0F6FAA189C4F804900B06C4F8189028D421F08301B8F1CE
S224404D60020F89B2A1812BD0002D37D0B8F1010F12D089B2284B01F00800FB63256080B2FA
S224404D802561666180B111F0030F4FF0000018BF0646A660BDE8F88341F001017342A181AB
S224404DA0A361E6E74FF0FF30BDE8F8832169384603F01EFCA189D0E7384603F057FBBBE7F4
S224404DC0002004F1430341F0020100250122A181A560236023616261BDE8F883002E08BFB1
S224404DE04FF48066304603F015FF054628B1A18941F0800189B2A181B8E74FF4806003F0B6
S224404E0009FF054618B9A1894FF0FF30D9E74FF48066ECE7D0064020658340004B6E2DE9A8
S224404E20F0479C040F4692462AD5936812682BB3804602F1080919E96000B60816D0043DC6
S224404E40002401E0A6420FD0404655F8041F3A46013403F06DFB431CF4D10023CAF80830FA
S224404E60CAF80430BDE8F087DAF80830A3EB860309F10809CAF80830002BDCD10020ECE7EA
S224404E8003F08EFC0023CAF80830CAF80430BDE8F08700BF936810B41BB15DF8044BFFF73D
S224404EA0BDBF184653605DF8044B70472DE9F04F1C46ADB0924601910290069418B1836B64
S224404EC0002B00F0DE80019B99898AB2900408D41D4641F400515B6E8AB2A98123F4005328
S224404EE06B66110740F1AD80019B1B69002B00F0A88002F01A020A2A00F0AF800DF1700BE9
S224404F0000235C460A93119303931093CDF83CB09AF800305546252B1CD00BB91AE01BB139
S224404F2015F8013F252BFAD1B5EB0A0612D0109B119A0133C4F800A032446660072B10933B
S224404F40119279DD002A40F0A584039B5C461092334403932B78002B00F03A8300214FF0C6
S224404F6000034FF0FF38681C8DF8373089466B7846460D4600F1010AA3F12002582A00F24C
S224404F800183DFE812F04702FF02FF025502FF02FF02FF02FF02FF02FF025B026802FF020F
S224404FA08101BA01FF0287028D028D028D028D028D028D028D028D028D02FF02FF02FF02DB
S224404FC0FF02FF02FF02FF02FF02FF02FF029B02FF02FF02FF02FF02FF02FF02FF02FF02E0
S224404FE0FF02FF02B602FF02FF02FF02FF02FF02CE02FF02FF02E602FF02FF02FF02FF02EF
S224405000FF02FF02FF02FF02FF02FF0219022B02FF02FF02FF0213022B02FF02FF02F901BC
S224405020FF02020287016D028102FF029801FF028100FF02FF02D5010834039B33440393D1
S22440504088E70298019902F055F8A8B9019B9A8902F01A020A2A7FF451AF019BB3F90E30CE
S224405060002BFFF64BAF019952462346029800F017FD2DB0BDE8F08F4FF0FF302DB0BDE8A7
S224405080F08F03F0F3F91EE719F0200F0595B046069A00F04F820732012322F0070202F1D4
S2244050A00801D2E9006706914FF000020025CDF810808DF83720B8F1000F01DB29F080091C
S2244050C0B8F1000F40F0948256EA070214BF01220022002A40F08C82002B40F0728319F06B
S2244050E0010F00F0A3832CAB302203F8412DC3EB0B080893049B4345B8BF43461F4605B115
S224405100013719F0020C00D0023719F08403079340F04782059BDD1B002D40F34282102DD6
S22440512040F38B84DDF840E01023119ABD4E7146CDF82CC006E011464FF0010E5C46103D28
S224405140102D20DD481C1032266001F1020E072863601192014604F108041090EFDD002A2F
S224405160E9D002980FAA01995C460993FFF756FE002840F03482103D1099119A102D01F1DE
S224405180010E099BDEDCDDF82CC071462A440729266065601192109100F330839DF8373016
S2244051A00834481C002B40F00482BCF1000F0CD002320EA9022307281090119284E80A0099
S2244051C000F3F882014608340130079B802B00F09882049BC8EB0305002D38DD102D924E59
S2244051E0C8BF102307DC28E04FF0010E11465C46103D102D20DD481C1032266001F1020EC9
S224405200072863601192014604F108041090EFDD002AE9D002980FAA01995C460493FFF701
S224405220FDFD002840F0DB81103D1099119A102D01F1010E049BDEDC70462A44072826606A
S22440524065601192109000F3EF810834013002EB08030728089A1193109084E8040140F380
S224405260F081002B40F0F28219F0040F109340F0D682039B059A9742ACBFDB199B180393A4
S22440528000235C46109343E6504649F004099AF800306FE619F020030595B04600F03181E7
S2244052A0069A0023073222F0070202F10801D2E900670691F8E6069AB04605951368161D21
S2244052C04FF0000208938DF83720002B00F0BB83B8F1000FC0F29883089D00214246284637
S2244052E003F04CFF002800F0BE830023C5EB000806969DF837500493FCE69AF800300AF109
S22440530001002A2B00F0B883A3F1300282460026092A3FF631AE06EB86061AF8013B02EB14
S2244053204606A3F13002092AF5D946EAE67623E63E4A19F0200F0595B0460A928DF83710C8
S22440534000F01181069A073222F0070202F10801D2E90067069119F0010F00F04D8256EAC5
S224405360070200F0498230228DF8393049F0020902238DF8382097E69AF800306C2B00F0D8
S224405380378349F010095046F4E519F0200F8DF8371000F005830399069ACF1708461368E6
S2244053A0043239460692C3E90001B1E549F040099AF800305046DDE5069A01274FF0000174
S2244053C0059513680432B8468DF83710069212AA8DF8483008920023049392E619F0200F1E
S2244053E00595B0468DF8371071D00699073121F00701D1E90023083116461F460691002A43
S22440540073F10003C0F2B1829DF837500123CDF8108050E69AF80030504600297FF4AAADE5
S2244054202021A7E5C897410088974100AC97410049F001099AF8003050469BE5069A15689E
S2244054401346002D03F10403C0F2DA82069350469AF800308EE59AF8003050462B2189E502
S224405460069878223023B04601468DF83920AA4A49F0020904318DF83830059502230668BA
S224405480002706910A920FE649F020099AF8003050466FE549F080099AF80030504669E502
S2244054A0A3F13002002505EB85051AF8013B02EB4505A3F13002092AF5D95DE549F0100962
S2244054C00595B0468DF8371019F0200F8DD1069A19F0100F134640F0C48119F0400F00F0B7
S2244054E0C081B2F900600433F717069332463B4685E749F010090595B04619F020037FF457
S224405500CFAE19F0100240F0B38119F0400300F0AF810699134600270A460E88043206920B
S224405520C2E549F010090595B046069A19F0200F7FF4B1AD19F0100F134640F0A58119F014
S224405540400F00F0A18116880432002701230692AAE5724A19F0200F0595B0468DF837100F
S2244055600A927FF4EFAE069919F0100F0A4640F0868119F0400F00F0828104320E880027AE
S2244055800692E8E605958DF837100BB38DF848304FF0000301278DF8373012ABB846089393
S2244055A019E71099119A481C9DF83730002B3FF4FCAD01320DF137010123072810901192EC
S2244055C084E80A0000F3E780014608340130ECE5119B23B102980FAA0199FFF71FFC019B17
S2244055E09B895B063FF548AD03982DB0BDE8F08F012B00F01F81022B40F0E7805A46DDF827
S22440560028E0330906F00F00390943EA07730F461E461EF8003002F8013D56EA0703F0D1D1
S2244056200892C2EB0B0865E5002A40F067810122089943465C461C91CDF87480CDF8448061
S224405640109204F1080219F0040F47D00599CD1B002D43DD102D40F3018210981024304E11
S224405660DDF80880DDF8049006E04FF0010E18465A46103D102D1DDD411C1033166000F162
S224405680020E072954601193084602F108021091EFDD002BE9D00FAA40464946FFF7BEFB14
S2244056A05A4600289BD1103D1098119B102D00F1010EE1DC2B44BEF1070F166055601193D3
S2244056C0CDF840E00ADD002B3FF4D3AD02980FAA0199FFF7A3FB002881D1119B039A0599F9
S2244056E08F42ACBFD21952180392002B3FF4C8AD02980FAA0199FFF791FB00283FF4C0AD35
S2244057006DE7059BDD1B002D7FF763AD102D40F3B081044E10230EE0AC974100989741009D
S224405720C8974100889741004FF0010E11465C46103D102D20DD481C1032266001F1020E28
S224405740072863601192014604F108041090EFDD002AE9D002980FAA01995C460793FFF7B9
S2244057605DFB00287FF43BAF103D1099119A102D01F1010E079BDEDC2A44BEF1070F266013
S22440578065601192CDF840E000F3B18008340EF1010071461DE5002A40F08B80BCF1000F3D
S2244057A000F083800EAA022118465C461C920A461D9107E5002A40F08D80012011465C46BD
S2244057C003E59046CDF820B094E45946F20806F00703F80842EA477230330746164601F836
S2244057E0013D56EA0702F1D119F0010F089140F09280C1EB0B087DE4022355E4002A40F04F
S224405800E6809DF83730002B00F0BB8001230DF137025C461C9218461D931A46D4E6059A19
S224405820D51B5A46002D3FF715AF22E59846CDF820B05FE4002F08BF0A2E79D22CAB3036F9
S22440584003F8416DC3EB0B08089353E402980FAA0199FFF7E3FA00287FF4C1AE119B5A46B1
S224405860F1E61E680433F717069332463B46C6E5069900270A460E680432069214E4166834
S22440588004320027069266E504321E6800270123069209E402980FAA0199FFF7BFFA002833
S2244058A07FF49DAE5C46FFF7C8BB184611465C468BE402980FAA0199CDF824C0FFF7AEFAD0
S2244058C000287FF48CAE10995C46119A481CDDF824C06AE402980FAA0199FFF79FFA0028A9
S2244058E07FF47DAE10995C46119A481C6DE4002A40F09580012011465C466AE402980FAAF0
S2244059000199FFF78BFA00287FF469AE10985C46119A01309BE4302B089B22D0013B1A464A
S22440592008933023C2EB0B0801F8013CFFF7E2BBD846304639460A22002305F0C1F902F1A7
S224405940300E3046394600230A2208F801ED05F0B7F906460F4656EA0703EAD14346CDF8F9
S2244059602080C3EB0B08FFF7C5BB2D257642CDF810804FF0010367EB47078DF83750FFF7C7
S2244059809ABB114601205C46BCF1000F3FF421AC0EAA0223CBF800201A46CBF8043011E48B
S2244059A019F0100F0BD119F0400F08D0069A136804320692BDF80C201A80FFF7A9BA069A11
S2244059C0136804320692039A1A60FFF7A1BA02980FAA0199CDF824C0FFF720FA00287FF490
S2244059E0FEAD10995C46119A481CDDF824C0DBE549F020090AF101009AF80130FFF7BABA59
S224405A006D420693504640E40898069604F040FB002380469DF837500493FFF76BBB029882
S224405A200FAA0199FFF7FAF900287FF4D8AD10995C46119A481CFFF7CCBB1099119A013168
S224405A40144EFFF7A3BBB8F1060F134B069628BF4FF00608089328EAE877BCE410990D4EAF
S224405A6001F1010E26E6069604909DF83750FFF741BB8646094E7FE6069A9AF8013016682D
S224405A800432002E0692BFF675AA4FF0FF36FFF771BA00BFC8974100C09741008897410005
S224405AA02DE9F0478D89ADF58E6D88464FF4806625F002051CACB8F80EA00027ADF8145038
S224405AC002A9D8F82450814602940195D8F8645006941B95D8F81C50ADF816A00995019DFE
S224405AE008970B9504960796FFF7E0F9041E07DB484602A902F020FCB84218BF4FF0FF348E
S224405B00BDF814305B0605D5B8F80C3043F04003A8F80C3020460DF58E6DBDE8F08700BF90
S224405B202DE9F04FC1B01C46894605460992089002F0FAFF03680C941846159304F0A8FA19
S224405B4016901DB1AB6B002B00F0F380B9F80C2093B29E040AD442F40052D9F8641093B234
S224405B6021F40051A9F80C20C9F864101D0740F1AA80D9F81020002A00F0A58003F01A03A9
S224405B800A2B00F0AC800DF1C0080023C346139314931293179319930A9325932493CDF864
S224405BA08C80099A1378252B00F0C7800BB9C4E01BB112F8013F252BFAD109991446551ADB
S224405BC011D0249B259A0133CBF800102A44CBF80450072B2493259200F394800BF1080BDF
S224405BE00A9B2B440A932378002B00F0938000234FF0FF3C611C66781A4664468DF86F30C0
S224405C000B9306934B1CA6F12001582900F2C183DFE811F07203BF03BF037903BF03BF0371
S224405C20BF03BF03BF03BF0380038E03BF0301023B02BF039203990399039903990399039E
S224405C409903990399039903BF03BF03BF03BF03BF03BF03BF03BF03BF03BF03A002B8029F
S224405C60BF03B802BF03BF03BF03BF03EC02BF03BF03F302BF03BF03BF03BF03BF03100317
S224405C80BF03BF032603BF03BF03BF03BF03BF03BF03BF03BF03BF03BF034B035402B80220
S224405CA0B802B80292025402BF03BF037602BF0380020802A8039902BF031A02BF0395007C
S224405CC0BF03BF035E030898494601F013FAA0B9B9F80C3003F01A030A2B7FF454AFB9F9BA
S224405CE00E30002BFFF64FAF4946099A2346089801F0C0F941B0BDE8F08F4FF0FF3041B0AA
S224405D00BDE8F08F0898494623AAFFF7C3F840B9C34665E7259B23B10898494623AAFFF799
S224405D20B9F8B9F80C305A06E7D40A9841B0BDE8F08F089802F09AFB08E7099C53E709931D
S224405D40A446069B980640F17F820C9F0123073727F0070202F10801D2E900450C910022BB
S224405D60CDF840C017468DF86F20BCF1000F03DB069A22F080020692BCF1000F40F09C8337
S224405D8054EA050214BF01220022002A40F09483002B40F05084069AD20740F1EB840DF5A6
S224405DA0807A30230AF8413DCAEB0804CDF83CA0A4456346B8BF234607930023119317B1D4
S224405DC0079B01330793069B13F002030D9302D0079B02330793069B13F084030E9340F086
S224405DE0F7820B9B079AC2EB030ABAF1000F40F3EF82BAF1100F259940F3BE87BE4F102544
S224405E001896249A3E462746089C04E0AAF1100ABAF1100F1BDD01321031CBF800600BF14E
S224405E20080B072A4BF8045C25912492EEDD2046494623AAC346FFF72DF800287FF471AF5E
S224405E40AAF1100A2599249ABAF1100FE3DC3C463746189E01320AEB010CCBF80070072AF5
S224405E60CDF894C02492CBF804A000F3A6820BF1080B9DF86F7097B1249B01220CF1010CD5
S224405E800DF16F011344CBF80420CDF894C0072BCBF80010249300F3DF830BF1080B0D9B30
S224405EA08BB1249B0CF1020C1CA902220133CDF894C0CBF80010072B2493CBF8042000F3CB
S224405EC0D7830BF1080B0E9B802B00F01183109B1F1B002F37DD102F249B40F353860D9469
S224405EE04FF0100A854D6246089C02E0103F102F19DD01331032CBF800500BF1080B072BB6
S224405F004BF804AC25922493F0DD2046494623AAC346FEF7BFFF00287FF403AF103F259A35
S224405F20249B102FE5DC0D9C94460133BC44CBF80050072BCDF894C02493CBF8047000F367
S224405F407F830BF1080B069BDF0500F14482249BA4440F9A0133CDF894C0CBF80020072BFD
S224405F60CBF80440249300F350830BF1080B069B590740D50B9B079A9C1A002C3BDD102CB6
S224405F80249B40F33E8710255B4F6246089E02E0103C102C19DD01331032CBF800700BF1D3
S224405FA0080B072B4BF8045C25922493F0DD3046494623AAC346FEF76DFF00287FF4B1AE43
S224405FC0103C259A249B102CE5DC94460133A444CBF80070072BCDF894C02493CBF8044083
S224405FE009DD0898494623AAFEF754FF00287FF498AEDDF894C00A9B079A0B998A42ACBF07
S2244060009B185B180A93BCF1000F40F00A830023C3462493C5E5194606981E7840F00400AB
S2244060200690EFE50993A446069B13F0200300F0EF800C9F0023073727F0070202F10801DD
S224406040D2E900450C918AE60C9A002509931368171D8DF86F500F93002B00F0D586002C50
S2244060600F98C0F27C862946224603F087F8002800F08A870F9B0C97C41A10959DF86F70CA
S22440608024EAE4731195079399E61E78591C2A2E00F0D487A6F130000B46002409283FF647
S2244060A0B2AD04EB840413F8016B00EB4404A6F130000928F5D944EAE474A4E50993A446C0
S2244060C0069B8DF86F209C064FD50C9F073727F00707D7E9002307F1080114461D460C91B4
S2244060E0002A73F10003C0F273849DF86F700123CDF840C039E600BFFC974100D897410062
S2244061001E7806996C2E00F0C28541F010010691194677E50993069B8DF86F209E0640F17A
S224406120ED840A990C9ACD1708461368043229460C92C3E9000134E5069941F04001069102
S22440614019461E785EE5069941F02001069119461E7857E50993A446069B8DF86F2043F09B
S22440616010030693069B9C06AFD4069BD80640F1DC840C9A13461C680433E5170C9322469B
S2244061802B46ADE70C9F099307378DF86F2027F0070303F108020C921A6813925B681398CA
S2244061A014931499079403F0B1FE0128DDF81CC040F01A84139800220023149904F030FDA3
S2244061C0002840F070869DF86F7003230698B44A00211C460793B34B20F080001091472E35
S2244061E0D8BF1A46069011910F92E8E5069941F00801069119461E7804E50993A446069B48
S22440620043F010030693069B13F020037FF411AF069A12F0100240F0D982069B13F040033A
S22440622000F0D4820C99134600250A460C8804320C9294E50993A446069B43F01003069379
S224406240069B98063FF581AD069BD90640F17D840C9A134604321C68002501230C927EE5A3
S2244062600993A446904B8DF86F201793069B9A0637D50C9F073727F0070303F10802D3E9A9
S22440628000450C92069BDF0740F1168254EA050300F01282069B30228DF8716043F002033B
S2244062A08DF870200693022359E50C990120099300230A6804311F468DF86F3010930446E6
S2244062C0119326AB07900C918DF898200F937AE50993A446754B8DF86F201793069B9A064D
S2244062E0C7D4069BDB0640F13E840C9A00251346146804330C93C5E71E781946002A7FF495
S22440630081AC20227EE4069941F00101069119461E7877E40C9D296808460B9129460028F3
S22440632001F10401C0F2BA840C9119461E7869E41E7819462B2265E4069941F080010691DF
S22440634019461E785EE4A6F13000002101EB810113F8016B00EB4101A6F130000928F5D901
S2244063600B9150E40C9D30220698A44629460993782340F0020004312C681E468DF871305A
S2244063804A4B00250690179302230C918DF87020E5E409938DF86F20002E3FF4BBAC002383
S2244063A0012226A98DF8986007921F460F9114468DF86F301093119305E50898494623AAE0
S2244063C0FEF768FD00287FF4ACAC9DF86F70C346DDF894C04FE5652E40F3C9801398002275
S2244063E000231499CDF834C004F010FCDDF834C0002800F06481249B01220CF1010C2C49A8
S2244064001344CBF80420CDF894C0072BCBF80010249300F3BA830BF1080B1D9B129A9342AC
S22440642003DB069BDE077FF5A2AD249B16990133159A8C44CBF80410072BCBF80020CDF81E
S22440644094C0249300F331840BF1080B129B5C1E002C7FF78CAD102C249B40F3BC8510268E
S224406460144D6246089F03E0103C102C40F3B68101331032CBF800500BF1080B072B4BF845
S224406480046C25922493EFDD3846494623AAC346FEF700FD00287FF444AC259A249BE3E765
S2244064A0EC974100E897410098974100AC974100F8974100D8974100012B00F04B81022B8A
S2244064C040F0E280C2461798230904F00F012A0943EA057315461C46435C0AF8013D54EA4C
S2244064E00503F1D15346CDF83CA0C3EB08045FE40B9B079A9F1A002F7FF7E9AC102F249B1E
S22440650040F3F9840D944FF0100ABB4D6246089C02E0103F102F19DD01331032CBF8005049
S2244065200BF1080B072B4BF804AC25922493F0DD2046494623AAC346FEF7ACFC00287FF4A4
S224406540F0AB103F259A249B102FE5DC0D9C94460133BC44CBF80050072BCDF894C02493C2
S224406560CBF8047000F319820BF1080BAFE4129B0CF10106249C012B40F3AF8101230F9AA2
S22440658025961C44CBF80020CBF80430072C249400F3BF810BF1080B169A0134159B1644A5
S2244065A0072CCBF8003025962494CBF8042000F3C8810BF1080B002313980022149904F03A
S2244065C025FB129B002840F0DA80013B01340F9A1E44072C02F1010224942596CBF80020FC
S2244065E0CBF8043000F389810BF1080B199A01341FAB06EB020C072CCBF80420CDF894C06F
S2244066002494CBF800307FF7B0AC0898494623AAFEF740FC00287FF484ABDDF894C0C3468F
S224406620A5E40898494623AAFEF734FC00283FF4EEACFFF776BB1446CDF83C80FFF7B8BB0B
S2244066400898494623AAFEF725FC00287FF469ABDDF894C0C34676E40898494623AAFEF7B7
S22440666019FC00287FF45DABDDF894C0C34616E40898494623AAFEF70DFC00287FF451AB60
S224406680DDF894C0C3461EE44146E20804F00703E80842EA457230330546144601F8013D00
S2244066A054EA0502F1D1069A0F91D00700F18281C1EB0804FFF77CBB0223FFF750BB1D9CBF
S2244066C0002C40F36E82129A119913468A42A8BF0B460F991C468F18002C0EDD249BA44484
S2244066E0CBF800100133CDF894C0CBF80440072B249300F345830BF1080B119B002CA8BF3C
S2244067001B1B002B1C4640F38880102C249B40F36F841026384D6246DDF820A002E0103CEF
S224406720102C6BDD01331032CBF800500BF1080B072B4BF8046C25922493F0DD50464946B3
S22440674023AAC346FEF7A6FB00287FF4EAAA259A249BE4E7002D08BF0A2C80F0FE800DF5F6
S224406760807A30340AF8414DCAEB0804CDF83CA0FFF71EBB1C46CDF83C80FFF719BB5F1E8B
S224406780002F7FF733AF102F1B4DC8BF4FF0100A04DCCAE0103F102F40F3C7800134103699
